:100000000C9437000C94C8010C94C8010C94630143
:100010000C94C8010C9461000C94C8010C94C801A4
:100020000C94C8010C94C8010C94C8010C94C8012C
:100030000C94C8010C94C8010C94C8010C94C8011C
:100040000C94C8010C94C8010C94C8010C94C8010C
:100050000C94C8010C94C8010C94C8010C94C801FC
:100060000C94C8010C94C8010100010880001124FF
:100070001FBECFEFD8E0DEBFCDBFE8E6F0E040E046
:1000800017C0B591A59135912591059107FD0CC03B
:1000900095918591EF01F92FE82F05900D92A21708
:1000A000B307D9F7FE0104C01D92A217B307E1F709
:1000B000ED36F40731F70E94D1000C94B601F894A4
:0200C000FFCF70
:1000C2001F920F920FB60F9211242F938F939F932B
:1000D2004A990EC02FE788E391E02150804090407A
:1000E200E1F700C000004A9903C081E08093070154
:1000F2004B990EC02FE788E391E021508040904059
:10010200E1F700C000004B9903C081E08093060133
:100112004C990EC02FE788E391E021508040904037
:10012200E1F700C000004C9903C081E08093050113
:100132004D990EC02FE788E391E021508040904016
:10014200E1F700C000004D9903C081E080930401F3
:100152004E990EC02FE788E391E0215080409040F5
:10016200E1F700C000004E9903C081E080930301D3
:100172004F990EC02FE788E391E0215080409040D4
:10018200E1F700C000004F9903C081E080930201B3
:100192009F918F912F910F900FBE0F901F901895E6
:1001A2000E9423010E94930180E30E94C10178947E
:1001B20080910701813029F485E70E94C1011092E4
:1001C200070180910601813029F484E60E94C10171
:1001D2001092060180910501813029F48CE60E947B
:1001E200C1011092050180910401813029F482E756
:1001F2000E94C1011092040180910301813029F40F
:1002020081E40E94C10110920301809102018130B8
:1002120029F482E40E94C10110920201809101013D
:10022200813029F483E50E94C1011092010180917D
:100232000001813009F0BCCF83E70E94C101109216
:040242000001B6CF32
:100246008AB18B7F8AB98AB1877F8AB98AB18F7E54
:100256008AB98AB18F7D8AB98AB18F7B8AB98AB108
:100266008F778AB984B18E7F84B984B18D7F84B942
:100276008BB184608BB98BB188608BB98BB180618F
:100286008BB98BB180628BB98BB180648BB98BB122
:1002960080688BB985B1816085B985B1826085B981
:1002A600E8E6F0E0808187608083EDE6F0E080811B
:1002B6008C6F8083EBE6F0E0808183608083089515
:1002C6001F920F920FB60F9211242F938F939F9325
:1002D60018990EC02FE788E391E0215080409040A6
:1002E600E1F700C00000189903C081E08093010186
:1002F60019990EC02FE788E391E021508040904085
:10030600E1F700C00000199903C081E08093000165
:100316009F918F912F910F900FBE0F901F90189560
:10032600CF93DF938AB18E7F8AB98AB182608AB908
:10033600C0ECD0E01882A1ECB0E01C92E2ECF0E058
:1003460010828881826088838C9188698C938081F1
:10035600866080838FEC90E09093C5008093C40004
:06036600DF91CF91089524
:10036C00EC010E94CD010E94CC01CE010E94CE0175
:06037C00CE010E94CA013F
:0E0382009091C00095FFFCCF8093C6000895B7
:040390000C940000C9
:040394000E945F0064
:020398000895C6
:02039A000895C4
:02039C000895C2
:00000001FF
