:100000000C9437000C9474010C9474010C947401DA
:100010000C9474010C9461000C9474010C947401A0
:100020000C9474010C9474010C9474010C9474017C
:100030000C9474010C9474010C9474010C9474016C
:100040000C9474010C9474010C9474010C9474015C
:100050000C9474010C9474010C9474010C9474014C
:100060000C9474010C9474010100010680001124A9
:100070001FBECFEFD8E0DEBFCDBFE8E6F0E040E046
:1000800017C0B591A59135912591059107FD0CC03B
:1000900095918591EF01F92FE82F05900D92A21708
:1000A000B307D9F7FE0104C01D92A217B307E1F709
:1000B000ED36F40731F70E94D1000C946201F894F8
:0200C000FFCF70
:1000C2001F920F920FB60F9211242F938F939F932B
:1000D2004A990EC02FE788E391E02150804090407A
:1000E200E1F700C000004A9903C081E08093050156
:1000F2004B990EC02FE788E391E021508040904059
:10010200E1F700C000004B9903C081E08093040135
:100112004C990EC02FE788E391E021508040904037
:10012200E1F700C000004C9903C081E08093030115
:100132004D990EC02FE788E391E021508040904016
:10014200E1F700C000004D9903C081E080930201F5
:100152004E990EC02FE788E391E0215080409040F5
:10016200E1F700C000004E9903C081E080930101D5
:100172004F990EC02FE788E391E0215080409040D4
:10018200E1F700C000004F9903C081E080930001B5
:100192009F918F912F910F900FBE0F901F901895E6
:1001A2000E9410010E943F0180E30E946D01789439
:1001B20080910501813029F485E70E946D0110923A
:1001C200050180910401813029F484E60E946D01C9
:1001D2001092040180910301813029F48CE60E947F
:1001E2006D011092030180910201813029F482E7AE
:1001F2000E946D011092020180910101813029F467
:1002020081E40E946D011092010180910001813010
:0E02120079F682E40E946D0110920001C9CFBE
:100220008AB18B7F8AB98AB1877F8AB98AB18F7E7A
:100230008AB98AB18F7D8AB98AB18F7B8AB98AB12E
:100240008F778AB98BB184608BB98BB188608BB999
:100250008BB180618BB98BB180628BB98BB18064BB
:100260008BB98BB180688BB9E8E6F0E0808187605C
:0E0270008083EDE6F0E080818C6F808308953E
:10027E00CF93DF938AB18E7F8AB98AB182608AB9B1
:10028E00C0ECD0E01882A1ECB0E01C92E2ECF0E001
:10029E0010828881826088838C9188698C9380819A
:1002AE00866080838FEC90E09093C5008093C400AD
:0602BE00DF91CF910895CD
:1002C400EC010E9479010E947801CE010E947A011A
:0602D400CE010E9476013C
:0E02DA009091C00095FFFCCF8093C600089560
:0402E8000C94000072
:0402EC000E945F000D
:0202F00008956F
:0202F20008956D
:0202F40008956B
:00000001FF
