:100000000C9437000C946C010C946C010C946C01F2
:100010000C946C010C946C010C946C010C946C01AC
:100020000C946C010C946C010C946C010C946C019C
:100030000C946C010C946C010C946C010C946C018C
:100040000C946C010C946C010C946C010C946C017C
:100050000C946C010C9431010C946C010C946C01A7
:100060000C94AA000C946C01010001028000112480
:100070001FBECFEFD8E0DEBFCDBFE8E6F0E040E046
:1000800017C0B591A59135912591059107FD0CC03B
:1000900095918591EF01F92FE82F05900D92A21708
:1000A000B307D9F7FE0104C01D92A217B307E1F709
:1000B000ED36F40731F70E94E9000C945701F894EB
:0200C000FFCF70
:1000C200882324F49BB190629BB903C09BB19F7DAE
:1000D2009BB986FF04C09BB190619BB903C09BB1E1
:1000E2009F7E9BB985FF04C09BB198609BB903C0FA
:1000F2009BB1977F9BB984FF04C09BB194609BB96D
:1001020003C09BB19B7F9BB983FF04C098B19860E9
:1001120098B903C098B1977F98B982FF04C098B18B
:10012200946098B903C098B19B7F98B981FF04C0CD
:1001320098B1926098B903C098B19D7F98B980FF39
:1001420004C08BB180648BB908958BB18F7B8BB95E
:0201520008950E
:100154001F920F920FB60F9211248F93EF93FF9378
:100164008091B9008C7F803899F028F4803651F062
:10017400803741F01FC0883AA9F0883B99F0803954
:10018400C9F406C0ECEBF0E080818068808317C07E
:100194008091BB0080930101ECEBF0E080818068EA
:1001A40080830DC0809100018093BB0085EC809317
:1001B400BC0005C0ECEBF0E0808180698083FF9196
:0E01C400EF918F910F900FBE0F901F90189526
:1001D20084B1806284B985B18F7D85B90E944A015C
:1001E2000E94130180E30E9462017894EAE7F0E042
:1001F2008081806480832FEF81EE94E021508040E3
:100202009040E1F700C00000809100010E9461006F
:1002120080910101823551F783B1806283B91092D6
:040222000101E4CF23
:10022600ECE7F0E0108280818064808380818F77A4
:100236008083808180628083EAE7F0E0108280819B
:1002460080688083808188608083808187608083E6
:0C025600EEE7F0E0808181608083089575
:100262001F920F920FB60F9211248F93EF93FF9369
:100272008091790080930001EAE7F0E0808180615B
:100282008083FF91EF918F910F900FBE0F901F907F
:020292001895BD
:1002940087B18E6087B98AB18C678AB980E00E9481
:0A02A400610084B1806284B90895FE
:1002AE00EC010E9471010E947001CE010E94720148
:0602BE00CE010E946E015A
:1002C40097B19F7C97B9880F8093BA0085E4809397
:0402D400BC000895CD
:0402D8000C94000082
:0402DC000E945F001D
:0202E00008957F
:0202E20008957D
:0202E40008957B
:00000001FF
