:100000000C9437000C947B030C947B030C947B03BF
:100010000C947B030C947B030C947B030C947B0368
:100020000C947B030C947B030C947B030C947B0358
:100030000C947B030C947B030C947B030C947B0348
:100040000C947B030C947B030C947B030C947B0338
:100050000C947B030C947B030C947B030C947B0328
:100060000C940E020C947B030100011280001124F9
:100070001FBECFEFD8E0DEBFCDBFE8E6F0E040E046
:1000800017C0B591A59135912591059107FD0CC03B
:1000900095918591EF01F92FE82F05900D92A21708
:1000A000B307D9F7FE0104C01D92A217B307E1F709
:1000B000ED36F40731F70E9461000C943303F89495
:0200C000FFCF70
:1000C20084B1806284B985B18F7D85B984B1826043
:1000D20084B984B1846084B987B1826087B988B1F8
:1000E2008D7F88B980E30E943E03E1E8F0E08081E1
:1000F200826080831092850010928400A0E8B0E0B4
:100102008C9182688C9380818861808380E29EE4F6
:10011200909387008093860078940E94BB012FEF12
:1001220087EA91E6215080409040E1F700C000004C
:10013200E0E0F1E0808180931001918190930F01C2
:10014200928190930E01938190930D018932B0F5C3
:1001520080E00E94DB028DE20E94DB022FEF81EE43
:1001620094E0215080409040E1F700C000008AE511
:100172000E94DB022FEF81EE94E0215080409040FC
:10018200E1F700C0000088E70E94DB022FEF81EE5A
:1001920094E0215080409040E1F700C0000084EBE1
:1001A2000E94DB022FEF81EE94E0215080409040CC
:1001B200E1F700C0000080E00E94DB0280911101A3
:1001C200823509F0AACF83B1806283B910921101FE
:0201D200A4CFB8
:1001D4000FC00E94590338F00E94600320F0952359
:1001E40011F00C946E030C94780311240C9468039E
:1001F4000E94B90270F3959FC1F3950F50E0551F0B
:10020400629FF001729FBB27F00DB11D639FAA2767
:10021400F00DB11DAA1F649F6627B00DA11D661FB6
:10022400829F2227B00DA11D621F739FB00DA11DD7
:10023400621F839FA00D611D221F749F3327A00D91
:10024400611D231F849F600D211D822F762F6A2F2D
:1002540011249F5750409AF0F1F088234AF0EE0F92
:10026400FF1FBB1F661F771F881F91505040A9F7BF
:100274009E3F510580F00C946E030C9468035F3F1D
:10028400E4F3983ED4F3869577956795B795F795FB
:10029400E7959F5FC1F7FE2B880F911D9695879573
:0402A40097F9089529
:1002A80011C00E94590338F00E94600320F039F40D
:1002B8009F3F19F426F40C9478030EF4E095E7FBBD
:1002C8000C946E03E92F0E94B90258F3BA1762071B
:1002D80073078407950720F079F4A6F50C94670353
:1002E8000EF4E0950B2EBA2FA02D0B01B901900149
:1002F8000C01CA01A0011124FF27591B99F0593F8D
:1003080050F4503E68F11A16F040A22F232F342FD4
:100318004427585FF3CF469537952795A795F04022
:100328005395C9F77EF41F16BA0B620B730B840B37
:10033800BAF09150A1F0FF0FBB1F661F771F881FEF
:10034800C2F70EC0BA0F621F731F841F48F4879547
:1003580077956795B795F7959E3F08F0B0CF939539
:0E036800880F08F09927EE0F97958795089556
:10037600CF93DF930E94F4020E9448030E940B036E
:10038600C0E0D1E088830E940B0389830E940B039F
:100396008A830E940B038B830E940B038C83288124
:1003A600898190E0820F911D2A81820F911D2B81F8
:1003B600820F911D99272C8130E082179307A9F4AB
:1003C60088B1826088B981E08093050110920601A8
:1003D60010920701109208011092090110920A0169
:1003E60010920B0110920C0113C088B18D7F88B951
:1003F6001092050110920601109207011092080151
:100406001092090110920A0110920B0110920C0130
:06041600DF91CF91089573
:10041C001F920F920FB60F9211248F93EF93FF93AD
:10042C008091B9008C7F803899F028F4803651F097
:10043C00803741F01FC0883AA9F0883B99F0803989
:10044C00C9F406C0ECEBF0E080818068808317C0B3
:10045C008091BB0080931101ECEBF0E0808180680F
:10046C0080830DC0809110018093BB0085EC80933C
:10047C00BC0005C0ECEBF0E0808180698083FF91CB
:0E048C00EF918F910F900FBE0F901F9018955B
:10049A00E89409C097FB3EF4909580957095619514
:1004AA007F4F8F4F9F4F9923A9F0F92F96E9BB27CA
:1004BA009395F695879577956795B795F111F8CF46
:1004CA00FAF4BB0F11F460FF1BC06F5F7F4F8F4FB1
:1004DA009F4F16C0882311F096E911C0772321F0A7
:1004EA009EE8872F762F05C0662371F096E8862F3F
:1004FA0070E060E02AF09A95660F771F881FDAF796
:0A050A00880F9695879597F90895DC
:100514000E94C10288F09F5798F0B92F9927B751CC
:10052400B0F0E1F0660F771F881F991F1AF0BA9593
:10053400C9F714C0B13091F00E946703B1E0089587
:100544000C946703672F782F8827B85F39F0B93F79
:10055400CCF3869577956795B395D9F73EF4909546
:0E0564008095709561957F4F8F4F9F4F089542
:1005720057FD9058440F551F59F05F3F71F0479552
:10058200880F97FB991F61F09F3F79F08795089537
:10059200121613061406551FF2CF4695F1DF08C056
:1005A200161617061806991FF1CF86957105610573
:0405B200089408950C
:1005B600682F70E080E090E00E944F022AE939E956
:1005C60041E351E40E94740320E030E04AE754E43A
:1005D6000E9453030E948A027093890060938800E8
:0205E600089576
:1005E80087B1816087B988B18E7F88B92FEF89EF8D
:1005F80090E0215080409040E1F700C0000088B1B1
:0E060800816088B925ED2A95F1F7000008956C
:1006160080E020E011C0309BFECF95EA9A95F1F775
:100626000000309B05C090E0880F991F816001C0D3
:0E063600880F3099FECF2F5F283068F30895AB
:10064400092E0394000C11F4882352F0BB0F40F4DC
:10065400BF2B11F460FF04C06F5F7F4F8F4F9F4F1C
:020664000895F7
:10066600EC010E9480030E947F03CE010E94810359
:06067600CE010E947D038D
:10067C0097B19F7C97B9880F8093BA0085E48093DB
:04068C00BC00089511
:1006900087B18E7F87B93099FECF309BFECF3099DE
:0406A000FECF0895EC
:0E06A4005058BB27AA270E9454010C94220331
:0E06B20000240A941616170618060906089565
:0E06C00000240A941216130614060506089567
:0E06CE00E894BB2766277727CB0197F908959C
:0C06DC0097F99F6780E870E060E00895E7
:0806E8000E94EA000C942203B9
:0606F0009FEF80EC08956D
:0406F6000C94000060
:0406FA000E945F00FB
:0206FE0008955D
:0207000008955A
:02070200089558
:00000001FF
