:100000000C9437000C9486050C9486050C94860598
:100010000C9486050C9486050C9486050C94860534
:100020000C9486050C9486050C9486050C94860524
:100030000C9486050C9486050C9486050C94860514
:100040000C9486050C9486050C9486050C94860504
:100050000C9486050C9486050C9486050C948605F4
:100060000C9486050C94860501000106800011247D
:100070001FBECFEFD8E0DEBFCDBFE8E6F0E040E046
:1000800017C0B591A59135912591059107FD0CC03B
:1000900095918591EF01F92FE82F05900D92A21708
:1000A000B307D9F7FE0104C01D92A217B307E1F709
:1000B000ED36F40731F70E9461000C943F05F89487
:0200C000FFCF70
:1000C20041E060EA76E881E090E00E947D020E94D1
:1000D200EC0361E070E081E090E00E941D0583E5A1
:1000E2000E940B0581E30E940B0561E070E087E04E
:1000F20090E00E941D058FE99FE00197F1F700C093
:10010200000083E50E940B0582E30E940B0561E07B
:1001120070E08EE090E00E941D0583E50E940B05D1
:1001220083E30E940B050E94B1036B017C019FEFE8
:1001320023ED80E3915020408040E1F700C00000B1
:1001420085B1806285B90E944A0580E680930101EB
:100152000E94B90480930201813011F00E947B0554
:1001620082E50E94B9040E947B059FEF29E688E19F
:10017200915020408040E1F700C0000085B18F7DA2
:1001820085B90E944A0581E6809301010E94B90463
:1001920080930201813011F00E947B0584E88093F4
:1001A200BC008091BC008823E4F78091BB0080935F
:1001B20005010E947B0562E070E087E090E00E940A
:1001C2001D05809105010E94D9029FEF20E782E080
:1001D200915020408040E1F700C000009FEF21EEE7
:1001E20084E0915020408040E1F700C0000085B1DA
:1001F200806285B90E944A0580E8809301010E94CD
:10020200B90480930201813011F00E947B0582E5DE
:100212000E94B9040E947B059FEF29E688E1915074
:1002220020408040E1F700C0000085B18F7D85B994
:100232000E944A0581E8809301010E94B9048093DB
:100242000201813011F00E947B0584E88093BC009A
:100252008091BC008823E4F78091BB008093050164
:100262000E947B0562E070E081E090E00E941D0543
:10027200809105010E94D9029FEF20E782E0915010
:1002820020408040E1F700C0000062E070E08EE0B4
:1002920090E00E941D05C701B6010E9459050F2E6C
:1002A200FAE0AF2EB12CF02DCB01B5010E94D104A2
:1002B200D82F10E3160F812F0E940B05D05D8D2FD2
:1002C2000E940B058EE20E940B0520E030E040E226
:1002D20051E4C701B6010E947F050E945905CB0176
:1002E200B5010E94D104C0E3C80F8C2F0E940B05F8
:1002F20083E40E940B059FEF21EE84E091502040A1
:100302008040E1F700C0000084E50E9452058AE3C4
:100312000E945205812F0E9452058D2F0E94520584
:100322008EE20E9452058C2F0E94520580E20E94AA
:1003320052059FEF21EE84E0915020408040E1F78A
:1003420000C0000088E40E9452058AE30E94520520
:1003520080910401CDEC8C9F812D11248695869588
:1003620086958C9F912D1124969596959695990F29
:10037200292F220F220F920F891B805D0E945205A6
:10038200809104018C9F912D1124969596959695B6
:10039200990F292F220F220F920F891B805D0E9435
:1003A200520585E20E94520580E20E9452058EE4C7
:1003B2000E9452058AE30E945205809103018C9F9C
:1003C200812D11248695869586958C9F912D1124D9
:1003D200969596959695990F292F220F220F920F97
:1003E200891B805D0E945205809103018C9FC12D63
:1003F2001124C695C695C695CC0F9C2F990F990FBF
:10040200C90F8C1B805D0E9452058AE00E94520532
:100412009FEF21EE84E0915020408040E1F700C040
:04042200000081CE87
:100426000FC00E94670538F00E946E0520F09523E4
:1004360011F00C9475050C94830511240C94610538
:100446000E94750470F3959FC1F3950F50E0551FF8
:10045600629FF001729FBB27F00DB11D639FAA2713
:10046600F00DB11DAA1F649F6627B00DA11D661F62
:10047600829F2227B00DA11D621F739FB00DA11D83
:10048600621F839FA00D611D221F749F3327A00D3D
:10049600611D231F849F600D211D822F762F6A2FD9
:1004A60011249F5750409AF0F1F088234AF0EE0F3E
:1004B600FF1FBB1F661F771F881F91505040A9F76B
:1004C6009E3F510580F00C9475050C9461055F3FC5
:1004D600E4F3983ED4F3869577956795B795F795A7
:1004E600E7959F5FC1F7FE2B880F911D969587951F
:0404F60097F90895D5
:1004FA000F931F93CF938B019C01C42F87B18F7CDD
:10050A0087B9443079F018F4413031F023C04031D2
:10051A0091F04034C9F01EC0E9EBF0E080818C7F95
:10052A0080831EC0E9EBF0E080818D7F808380812B
:10053A008160808315C0E9EBF0E080818E7F808343
:10054A008081826080830CC0E9EBF0E08081836067
:10055A00808306C0E9EBF0E080818C7F8083C1E074
:10056A0060E074E284EF90E0A90198010E94970488
:10057A00CA01B90160517109810991094C2F50E0F2
:10058A009A01220F331F032E000C440B550B0E94B5
:10059A0097042093B800ECEBF0E0808184608083BC
:0805AA00CF911F910F910895FC
:1005B200CF93DF932DEC829FC12D1124C695C69552
:1005C200C695CC0F9C2F990F990FC90F382F3C1B42
:1005D200C32F90E0831B9109EAE0F0E0BF010E9483
:1005E200D104629FD12D1124D695D695D695DD0FD3
:1005F2008D2F880F880FD80F862F8D1BD82F772726
:10060200CB018D1B9109BF010E94D104629F812DF4
:100612001124869586958695880F282F220F220F02
:10062200820F681B862F9FEF21EE34E0915020400D
:100632003040E1F700C00000805D0E940B0580E3BE
:100642008D0F0E940B0580E38C0F0E940B05DF913A
:04065200CF910895A7
:1006560080FF04C09BB190629BB903C09BB19F7D94
:100666009BB981FF04C09BB190649BB903C09BB149
:100676009F7B9BB982FF04C09BB190689BB903C066
:100686009BB19F779BB983FF04C095B1916095B9E3
:1006960003C095B19E7F95B984FF04C095B1926061
:1006A60095B903C095B19D7F95B985FF04C095B1F5
:1006B600946095B903C095B19B7F95B986FF04C038
:1006C60095B1986095B903C095B1977F95B9882380
:1006D60024F485B1806185B9089585B18F7E85B989
:0206E600089575
:1006E800E89409C097FB3EF49095809570956195C4
:1006F8007F4F8F4F9F4F9923A9F0F92F96E9BB277A
:100708009395F695879577956795B795F111F8CFF5
:10071800FAF4BB0F11F460FF1BC06F5F7F4F8F4F60
:100728009F4F16C0882311F096E911C0772321F056
:100738009EE8872F762F05C0662371F096E8862FEE
:1007480070E060E02AF09A95660F771F881FDAF745
:0A075800880F9695879597F908958C
:10076200CF93DF9300D0CDB7DEB70E944A0580E970
:100772000E94B90480E00E94B9040E947B050E9495
:100782004A0581E90E94B90461E0CE0101960E9406
:10079200500460E0CE0102960E9450040E947B0544
:1007A200698170E0762F66278A81682B660F672F32
:1007B200661F770B072E000C880B990B0E9476039D
:1007C20020E030E040E05FE30E947F050F900F9051
:0607D200DF91CF910895B4
:1007D8008AB18C6F8AB98BB183708BB984B18F63FE
:1007E80084B915B880E00E942B032FEF89EF90E0C1
:1007F800215080409040E1F700C0000088E30E944B
:10080800F90487EB91E00197F1F700C000008CE054
:100818000E94F90487EB91E00197F1F700C000000E
:1008280086E00E94F90487EB91E00197F1F700C098
:0A083800000081E00E94F904089519
:100842000E947D0488F09F5798F0B92F9927B751DD
:10085200B0F0E1F0660F771F881F991F1AF0BA9562
:10086200C9F714C0B13091F00E946005B1E008955B
:100872000C946005672F782F8827B85F39F0B93F4D
:10088200CCF3869577956795B395D9F73EF4909515
:0E0892008095709561957F4F8F4F9F4F089511
:1008A000DC01662331F0ECEBF0E090819064908302
:1008B00005C0ECEBF0E090819F7B9083ECEBF0E0E7
:1008C0009081906890839091BC009923E4F7909177
:1008D000B900987F983511F0903529F48091BB00CC
:0A08E0008C9381E00895892F08959C
:1008EA0057FD9058440F551F59F05F3F71F04795D7
:1008FA00880F97FB991F61F09F3F79F087950895BC
:10090A00121613061406551FF2CF4695F1DF08C0DA
:10091A00161617061806991FF1CF869571056105F7
:04092A000894089590
:10092E00A1E21A2EAA1BBB1BFD010DC0AA1FBB1FE5
:10093E00EE1FFF1FA217B307E407F50720F0A21B57
:10094E00B30BE40BF50B661F771F881F991F1A94C4
:10095E0069F760957095809590959B01AC01BD01EE
:04096E00CF01089518
:100972008093BB0084E88093BC008091BC008823F4
:10098200E4F78091B900887F883131F0883231F004
:10099200803429F481E0089581E0089581E008958A
:1009A20097FB072E16F4009407D077FD09D00E941A
:1009B200E50407FC05D03EF4909581959F4F08957C
:0809C200709561957F4F0895C7
:1009CA00AA1BBB1B51E107C0AA1FBB1FA617B7076B
:1009DA0010F0A61BB70B881F991F5A95A9F7809587
:0809EA009095BC01CD010895B8
:1009F2009BB19B7F9BB90E942B038BB180618BB90A
:100A02008FE79EE30197F1F700C000008BB18F7E64
:040A12008BB90895FF
:100A16009BB194609BB90E942B038BB180618BB90B
:100A26008FE39CE90197F1F700C000008BB18F7E40
:040A36008BB90895DB
:100A3A006130710519F480589F4F08C06230710502
:100A4A0019F480549F4F02C080E090E00E94F9049C
:020A5A000895FD
:100A5C00092E0394000C11F4882352F0BB0F40F4C0
:100A6C00BF2B11F460FF04C06F5F7F4F8F4F9F4F00
:020A7C000895DB
:100A7E00EC010E948B050E948A05CE010E948C0516
:060A8E00CE010E94880564
:100A940084EA8093BC008091BC008823E4F7089525
:0E0AA4009091C00095FFFCCF8093C60008958E
:0E0AB2000E9421046894B1110C94610508950E
:0E0AC000E894BB2766277727CB0197F90895A6
:0E0ACE0000240A941616170618060906089545
:0E0ADC0000240A941216130614060506089547
:0C0AEA0097F99F6780E870E060E00895D5
:080AF60084E98093BC0008951F
:080AFE000E9413020C942E0566
:060B06009FEF80EC089552
:040B0C000C94000045
:040B10000E945F00E0
:020B1400089542
:020B1600089540
:020B180008953E
:00000001FF
