:100000000C9441000C9491020C9491020C943102D6
:100010000C945F020C9491020C9491020C94910246
:100020000C9491020C9491020C9491020C94910204
:100030000C9491020C9491020C9491020C949102F4
:100040000C9491020C9491020C9491020C949102E4
:100050000C9491020C9491020C9491020C949102D4
:100060000C9491020C94910275008B00A100B700D2
:10007000CD00E300E600FC0012012B0101000103AA
:10008000800011241FBECFEFD8E0DEBFCDBFECE76C
:10009000F0E040E017C0B591A5913591259105910B
:1000A00007FD0CC095918591EF01F92FE82F059080
:1000B0000D92A217B307D9F7FE0104C01D92A21733
:1000C000B307E1F7E138F40731F70E944B020C94D3
:0600D0007D02F894FFCF51
:1000D60090E08A30910508F0D1C0FC01EC5CFF4F3E
:1000E6000C9488028BB181608BB98BB182608BB91D
:1000F6008BB184608BB98BB188608BB98BB1806111
:100106008BB98BB180628BB98BB18F7B8BB908951C
:100116008BB18E7F8BB98BB182608BB98BB18460CA
:100126008BB98BB1877F8BB98BB18F7E8BB98BB136
:100136008F7D8BB98BB18F7B8BB908958BB1816025
:100146008BB98BB182608BB98BB18B7F8BB98BB13D
:1001560088608BB98BB180618BB98BB18F7D8BB980
:100166008BB180648BB908958BB181608BB98BB1EB
:1001760082608BB98BB184608BB98BB188608BB987
:100186008BB18F7E8BB98BB18F7D8BB98BB1806430
:100196008BB908958BB18E7F8BB98BB182608BB989
:1001A6008BB184608BB98BB1877F8BB98BB18F7E16
:1001B6008BB98BB180628BB98BB180648BB9089592
:1001C6008DE68BB908958BB181608BB98BB18D7F2C
:1001D6008BB98BB184608BB98BB188608BB98BB1CD
:1001E60080618BB98BB180628BB98BB180648BB91E
:1001F60008958BB181608BB98BB182608BB98BB15D
:1002060084608BB98BB1877F8BB98BB18F7E8BB9AD
:100216008BB18F7D8BB98BB18F7B8BB908958BB1E9
:1002260081608BB98BB182608BB98BB184608BB9DD
:100236008BB188608BB98BB180618BB98BB18062D1
:100246008BB98BB180648BB98BB180688BB90895FB
:100256008BB181608BB98BB182608BB98BB18460B5
:100266008BB98BB188608BB98BB18F7E8BB98BB113
:1002760080628BB98BB180648BB908951BB80895E1
:10028600813009F04AC08FE384B987B1816087B9AC
:1002960085E00E946B002FEF83ED90E321508040B4
:1002A6009040E1F700C0000084E00E946B002FEF51
:1002B60083ED90E3215080409040E1F700C00000BC
:1002C60083E00E946B002FEF83ED90E32150804086
:1002D6009040E1F700C0000082E00E946B002FEF23
:1002E60083ED90E3215080409040E1F700C000008C
:1002F60081E00E946B002FEF83ED90E32150804058
:100306009040E1F700C0000080E00E946B008FE0A3
:1003160084B987B18E7F87B9089581E00E948E02E5
:02032600089538
:1003280084B18F7E84B984B18F7D84B987B18E7F83
:1003380087B985B1806185B985B1806285B988B191
:10034800816088B9E8E6F0E08081816080838081FF
:1003580082608083EBE6F0E0808180618083808129
:1003680080628083ECE6F0E080818160808387B1E1
:10037800826087B987B1846087B987B1886087B997
:1003880087B1806187B984B1816084B984B18260A2
:1003980084B984B1846084B984B1886084B90895CB
:1003A800843021F482E00E946B000895823069F065
:1003B80018F4813031F00895833071F08430B1F051
:1003C800089588B1826088B9089588B1826088B933
:1003D80088B1846088B9089588B1826088B988B185
:1003E800846088B988B1886088B9089588B18260C6
:1003F80088B988B1846088B988B1886088B988B1BB
:06040800806188B908952F
:10040E00853038F085B1807F85B981E00E946B0020
:10041E000895823099F028F4882341F0813051F00C
:10042E000895833079F0843089F0089585B1807F06
:10043E0085B9089585B1816085B9089585B18360C8
:10044E0085B9089585B1876085B9089585B18F60A6
:04045E0085B90895BF
:100462001F920F920FB60F9211248F931C9905C001
:10047200809100018F5F809300011D9905C08091DA
:1004820002018F5F809302018F910F900FBE0F9038
:040492001F9018950A
:100496000E9472020E94940178948091000181303A
:1004A60011F40E944301809102010E94070280918B
:0804B60001010E94D401F1CF05
:1004BE001F920F920FB60F9211248F93349905C08D
:1004CE00809101018F5F809301018F910F900FBE7C
:0604DE000F901F9018951D
:1004E400E1ECF0E080818F7E80838081877F808350
:0604F4008FEF8AB90895A4
:1004FA00EC010E9496020E949502CE010E94970288
:06050A00CE010E949302E5
:0C051000EE0FFF1F0590F491E02D099400
:06051C0080E88BB9089590
:040522000C94000035
:040526000E946900C6
:02052A00089532
:02052C00089530
:02052E0008952E
:00000001FF
