:100000000C9437000C9414060C9414060C941406EB
:100010000C9414060C9414060C9414060C941406F8
:100020000C9414060C9414060C9414060C941406E8
:100030000C9414060C9414060C9414060C941406D8
:100040000C9414060C9414060C9414060C941406C8
:100050000C9414060C9414060C9414060C941406B8
:100060000C9414060C9414060100010F8000112456
:100070001FBECFEFD8E0DEBFCDBFE8E6F0E040E046
:1000800017C0B591A59135912591059107FD0CC03B
:1000900095918591EF01F92FE82F05900D92A21708
:1000A000B307D9F7FE0104C01D92A217B307E1F709
:1000B000ED36F40731F70E9461000C94C805F894FE
:0200C000FFCF70
:1000C20041E060EA76E881E090E00E94E7010E9468
:1000D20021040E94BB050E94CE0461E070E081E031
:1000E20090E00E94990583E50E94870581E30E94C2
:1000F200870561E070E087E090E00E9499058FE952
:100102009FE00197F1F700C0000083E50E94870598
:1001120082E30E94870561E070E08EE090E00E9439
:10012200990583E50E94870583E30E94870585B1CF
:10013200806285B90E94E6036B017C010E9468031C
:100142000E94270362E070E08BE090E00E94990534
:10015200C701B6010E94E2050F2EFAE0AF2EB12CC4
:10016200F02DCB01B5010E944D05D82F10E3160FDB
:10017200812F0E948705D05D8D2F0E9487058EE218
:100182000E94870520E030E040E251E4C701B60159
:100192000E940D060E94E205CB01B5010E944D05A9
:1001A200C0E3C80F8C2F0E94870583E40E94870555
:1001B20084E50E94DB058AE30E94DB05812F0E9411
:1001C200DB058D2F0E94DB058EE20E94DB058C2F62
:1001D2000E94DB0580E20E94DB0588E40E94DB05C9
:1001E2008AE30E94DB0580910E01CDEC8C9F812D6C
:1001F20011248695869586958C9F912D112496952E
:1002020096959695990F292F220F220F920F891BEF
:10021200805D0E94DB0580910E018C9F912D11243F
:10022200969596959695990F292F220F220F920F48
:10023200891B805D0E94DB0585E20E94DB0580E26E
:100242000E94DB058EE40E94DB058AE30E94DB0547
:1002520080910D018C9F812D11248695869586951E
:100262008C9F912D1124969596959695990F292FED
:10027200220F220F920F891B805D0E94DB05809165
:100282000D018C9FC12D1124C695C695C695CC0F24
:100292009C2F990F990FC90F8C1B805D0E94DB0563
:1002A2008AE00E94DB0520E030E040EF51E4C70124
:1002B200B6010E940406181624F488B18E7F88B90C
:1002C20011C088B1816088B90E94D30580E80E947C
:1002D2003505C701B6010E945604862F0E943505D6
:1002E2000E9409069FEF20E782E091502040804063
:0802F200E1F700C000001BCF82
:1002FA000FC00E94F00538F00E94F70520F0952300
:10030A0011F00C94FE050C94110611240C94EA05C4
:10031A000E94F10470F3959FC1F3950F50E0551FA9
:10032A00629FF001729FBB27F00DB11D639FAA2740
:10033A00F00DB11DAA1F649F6627B00DA11D661F8F
:10034A00829F2227B00DA11D621F739FB00DA11DB0
:10035A00621F839FA00D611D221F749F3327A00D6A
:10036A00611D231F849F600D211D822F762F6A2F06
:10037A0011249F5750409AF0F1F088234AF0EE0F6B
:10038A00FF1FBB1F661F771F881F91505040A9F798
:10039A009E3F510580F00C94FE050C94EA055F3FE0
:1003AA00E4F3983ED4F3869577956795B795F795D4
:1003BA00E7959F5FC1F7FE2B880F911D969587954C
:0403CA0097F9089502
:1003CE000F931F93CF938B019C01C42F87B18F7C0A
:1003DE0087B9443079F018F4413031F023C0403100
:1003EE0091F04034C9F01EC0E9EBF0E080818C7FC3
:1003FE0080831EC0E9EBF0E080818D7F8083808159
:10040E008160808315C0E9EBF0E080818E7F808370
:10041E008081826080830CC0E9EBF0E08081836094
:10042E00808306C0E9EBF0E080818C7F8083C1E0A1
:10043E0060E074E284EF90E0A90198010E94130538
:10044E00CA01B90160517109810991094C2F50E01F
:10045E009A01220F331F032E000C440B550B0E94E2
:10046E0013052093B800ECEBF0E08081846080836C
:08047E00CF911F910F91089529
:10048600CF93DF932DEC829FC12D1124C695C6957F
:10049600C695CC0F9C2F990F990FC90F382F3C1B6F
:1004A600C32F90E0831B9109EAE0F0E0BF010E94B0
:1004B6004D05629FD12D1124D695D695D695DD0F83
:1004C6008D2F880F880FD80F862F8D1BD82F772753
:1004D600CB018D1B9109BF010E944D05629F812DA5
:1004E6001124869586958695880F282F220F220F30
:1004F600820F681B862F9FEF21EE34E0915020403B
:100506003040E1F700C00000805D0E94870580E36F
:100516008D0F0E94870580E38C0F0E948705DF916F
:04052600CF910895D4
:10052A0080FF04C09BB190629BB903C09BB19F7DC1
:10053A009BB981FF04C09BB190649BB903C09BB176
:10054A009F7B9BB982FF04C09BB190689BB903C093
:10055A009BB19F779BB983FF04C095B1916095B910
:10056A0003C095B19E7F95B984FF04C095B192608E
:10057A0095B903C095B19D7F95B985FF04C095B122
:10058A00946095B903C095B19B7F95B986FF04C065
:10059A0095B1986095B903C095B1977F95B98823AD
:1005AA0024F485B1806185B9089585B18F7E85B9B6
:0205BA000895A2
:1005BC00882324F49BB190629BB903C09BB19F7DAF
:1005CC009BB986FF04C09BB190619BB903C09BB1E2
:1005DC009F7E9BB985FF04C09BB198609BB903C0FB
:1005EC009BB1977F9BB984FF04C09BB194609BB96E
:1005FC0003C09BB19B7F9BB983FF04C098B19860EB
:10060C0098B903C098B1977F98B982FF04C098B18C
:10061C00946098B903C098B19B7F98B981FF04C0CE
:10062C0098B1926098B903C098B19D7F98B980FF3A
:10063C0004C088B1816088B9089588B18E7F88B96B
:02064C0008950F
:10064E000E94D30580E8809301010E9435058093B6
:10065E000201813011F00E94090682E50E943505E3
:10066E000E9409062FEF89E698E1215080409040C4
:10067E00E1F700C000000E94D30581E880930101DC
:10068E000E94350580930201813011F00E94090607
:10069E0084E88093BC008091BC008823E4F78091AD
:1006AE00BB0080930D010E94090662E070E081E0BC
:1006BE0090E00E94990580910D0190E00E94430206
:0206CE0008958D
:1006D0000E94D30580E6809301010E943505809336
:1006E0000201813011F00E94090682E50E94350561
:1006F0000E9409062FEF89E698E121508040904042
:10070000E1F700C000000E94D30581E6809301015B
:100710000E94350580930201813011F00E94090684
:1007200084E88093BC008091BC008823E4F780912A
:10073000BB0080930E010E94090662E070E087E032
:1007400090E00E94990580910E0190E00E94430282
:0207500008950A
:10075200E89409C097FB3EF4909580957095619559
:100762007F4F8F4F9F4F9923A9F0F92F96E9BB270F
:100772009395F695879577956795B795F111F8CF8B
:10078200FAF4BB0F11F460FF1BC06F5F7F4F8F4FF6
:100792009F4F16C0882311F096E911C0772321F0EC
:1007A2009EE8872F762F05C0662371F096E8862F84
:1007B20070E060E02AF09A95660F771F881FDAF7DB
:0A07C200880F9695879597F9089522
:1007CC00CF93DF9300D0CDB7DEB70E94D30580E97D
:1007DC000E94350580E00E9435050E9409060E94A2
:1007EC00D30581E90E94350561E0CE0101960E9496
:1007FC00850460E0CE0102960E9485040E940906E1
:10080C00698170E0762F66278A81682B660F672FC7
:10081C00661F770B072E000C880B990B0E94AB03FD
:10082C0020E030E040E05FE30E940D060F900F9057
:06083C00DF91CF91089549
:100842008AB18C6F8AB98BB183708BB984B18F6393
:1008520084B915B880E00E9495022FEF89EF90E0ED
:10086200215080409040E1F700C0000088E30E94E0
:10087200750587EB91E00197F1F700C000008CE06D
:100882000E94750587EB91E00197F1F700C0000027
:1008920086E00E94750587EB91E00197F1F700C0B1
:0A08A200000081E00E947505089532
:1008AC000E94F90488F09F5798F0B92F9927B751F7
:1008BC00B0F0E1F0660F771F881F991F1AF0BA95F8
:1008CC00C9F714C0B13091F00E94E905B1E0089568
:1008DC000C94E905672F782F8827B85F39F0B93F5A
:1008EC00CCF3869577956795B395D9F73EF49095AB
:0E08FC008095709561957F4F8F4F9F4F0895A7
:10090A00DC01662331F0ECEBF0E090819064908397
:10091A0005C0ECEBF0E090819F7B9083ECEBF0E07C
:10092A009081906890839091BC009923E4F790910C
:10093A00B900987F983511F0903529F48091BB0061
:0A094A008C9381E00895892F089531
:10095400990F0008550FAA0BE0E8FEEF16161706CC
:10096400E807F907C0F012161306E407F50798F034
:10097400621B730B840B950B39F40A2661F0232B4D
:10098400242B252B21F408950A2609F4A140A695C9
:080994008FEF811D811D089504
:10099C00CF93DF938AB18E7F8AB98AB182608AB98C
:1009AC00C0ECD0E01882A1ECB0E01C92E2ECF0E0DC
:1009BC0010828881826088838C9188698C93808175
:1009CC00866080838FEC90E09093C5008093C40088
:0609DC00DF91CF910895A8
:1009E20057FD9058440F551F59F05F3F71F04795DE
:1009F200880F97FB991F61F09F3F79F087950895C3
:100A0200121613061406551FF2CF4695F1DF08C0E1
:100A1200161617061806991FF1CF869571056105FE
:040A22000894089597
:100A2600A1E21A2EAA1BBB1BFD010DC0AA1FBB1FEC
:100A3600EE1FFF1FA217B307E407F50720F0A21B5E
:100A4600B30BE40BF50B661F771F881F991F1A94CB
:100A560069F760957095809590959B01AC01BD01F5
:040A6600CF0108951F
:100A6A008093BB0084E88093BC008091BC008823FB
:100A7A00E4F78091B900887F883131F0883231F00B
:100A8A00803429F481E0089581E0089581E0089591
:100A9A0097FB072E16F4009407D077FD09D00E9421
:100AAA00610507FC05D03EF4909581959F4F089506
:080ABA00709561957F4F0895CE
:100AC200AA1BBB1B51E107C0AA1FBB1FA617B70772
:100AD20010F0A61BB70B881F991F5A95A9F780958E
:080AE2009095BC01CD010895BF
:100AEA009BB19B7F9BB90E9495028BB180618BB9A8
:100AFA008FE79EE30197F1F700C000008BB18F7E6C
:040B0A008BB9089506
:100B0E009BB194609BB90E9495028BB180618BB9A9
:100B1E008FE39CE90197F1F700C000008BB18F7E47
:040B2E008BB90895E2
:100B32006130710519F480589F4F08C06230710509
:100B420019F480549F4F02C080E090E00E94750526
:020B5200089504
:100B5400092E0394000C11F4882352F0BB0F40F4C7
:100B6400BF2B11F460FF04C06F5F7F4F8F4F9F4F07
:020B74000895E2
:100B760087B18F6087B98AB18C638AB980E00E9499
:0A0B8600DE0284B1806284B9089594
:100B9000EC010E9419060E941806CE010E941A0656
:060BA000CE010E941606C2
:100BA60084EA8093BC008091BC008823E4F7089512
:0E0BB6009091C00095FFFCCF8093C60008957B
:0E0BC4000E9456046894B1110C94EA0508953D
:0E0BD200E894BB2766277727CB0197F9089593
:0E0BE00000240A941616170618060906089532
:0E0BEE0000240A941216130614060506089534
:0C0BFC0097F99F6780E870E060E00895C2
:0A0C08000E94AA0408F48FEF08957B
:080C120084E98093BC00089501
:080C1A000E947D010C94AA0563
:060C22009FEF80EC089535
:040C28000C94000028
:040C2C000E945F00C3
:020C3000089525
:020C3200089523
:020C3400089521
:00000001FF
