:100000000C943E000C94DB010C94DB010C94DB019E
:100010000C94DB010C94DB010C94DB010C94DB01F0
:100020000C94DB010C94DB010C94DB010C94DB01E0
:100030000C94DB010C94DB010C94DB010C94DB01D0
:100040000C94DB010C94BB010C94AB010C94DB0110
:100050000C94DB010C948F010C94DB010C94DB01FC
:100060000C94DB010C94DB01800087008E0098006B
:10007000A200AC00B60001000103800011241FBEE5
:10008000CFEFD8E0DEBFCDBFE6E7F0E040E017C03D
:10009000B591A59135912591059107FD0CC09591DC
:1000A0008591EF01F92FE82F05900D92A217B30764
:1000B000D9F7FE0104C01D92A217B307E1F7EB3791
:1000C000F40731F70E9416010C94CA01F894FFCF8F
:1000D000E82F84FF52C084B18C6284B984B18F7ED2
:1000E00084B98CB580618CBDE7708E2F90E087302D
:1000F000910508F04BC0FC01EC5CFF4F0C94D5015E
:100100008CB58C7F8CBD8DB581608DBD3FC08CB5AD
:100110008C7F8CBD8DB58E7F8DBD38C08CB58160D8
:100120008CBD8CB58D7F8CBD8DB581608DBD2EC095
:100130008CB581608CBD8CB58D7F8CBD8DB58E7F6F
:100140008DBD24C08CB58E7F8CBD8CB582608CBD7E
:100150008DB581608DBD1AC08CB58E7F8CBD8CB580
:1001600082608CBD8DB58E7F8DBD10C08CB58360D7
:100170008CBD8DB58E7F8DBD09C084B1806184B981
:1001800084B1837D84B98CB58F7E8CBD8CB5462BB4
:0A019000242B282B20642CBD0895B9
:10019A00882324F495B1926095B903C095B19D7FE7
:1001AA0095B986FF04C095B1916095B903C095B120
:1001BA009E7F95B985FF04C09BB190689BB903C027
:1001CA009BB19F779BB984FF04C09BB190649BB994
:1001DA0003C09BB19F7B9BB983FF04C09BB1906214
:1001EA009BB903C09BB19F7D9BB982FF04C09BB1A1
:1001FA0090619BB903C09BB19F7E9BB981FF04C0EC
:10020A009BB198609BB903C09BB1977F9BB980FF54
:10021A0004C08BB184608BB908958BB18B7F8BB985
:02022A00089535
:10022C00F8940E9449010E946C018AB18C6F8AB9C2
:10023C001BB884B1836084B985B18C7F85B920E00B
:10024C0040E060E083E50E9468008CB580688CBD5E
:10025C007894EAE7F0E080818064808385B18B7FBD
:10026C0085B9809101010E94DD01809101010E94FC
:10027C00CD002FEF81EE94E0215080409040E1F7CB
:06028C0000C00000EBCFF2
:10029200ECE7F0E0808185608083808180628083EA
:1002A20080818064808380818F778083EAE7F0E0B9
:1002B20010828081806880838081886080838081D1
:1002C2008760808380818C7F8083EEE7F0E080818D
:0602D200806280830895A4
:1002D800CF93DF938AB18E7F8AB98AB182608AB957
:1002E800C0ECD0E01882A1ECB0E01C92E2ECF0E0A7
:1002F80010828881826088838C9188698C93808140
:10030800866080838FEC90E09093C5008093C40052
:06031800DF91CF91089572
:10031E001F920F920FB60F9211248F93EF93FF93AC
:10032E008091790080930201EAE7F0E0808180619C
:10033E008083808180648083FF91EF918F910F90F5
:08034E000FBE0F901F901895DF
:100356001F920F920FB60F9211248F938091C600B1
:10036600809301018F910F900FBE0F901F901895EB
:100376001F920F920FB60F9211248F938EB5809312
:0E03860000018F910F900FBE0F901F901895E1
:10039400EC010E94E2010E94E101CE010E94E3010E
:0603A400CE010E94DF0102
:0C03AA00EE0FFF1F0590F491E02D099468
:0403B6000C940000A3
:0403BA008EBD089557
:0403BE000E94660033
:0203C20008959C
:0203C40008959A
:0203C600089598
:00000001FF
