:100000000C943D000C942F030C942F030C942F039D
:100010000C9440010C942F030C942F030C942F0389
:100020000C942F030C942F030C942F030C942F0388
:100030000C942F030C942F030C942F030C942F0378
:100040000C942F030C942F030C942F030C942F0368
:100050000C942F030C942F030C942F030C942F0358
:100060000C94A4010C942F030100010580010501EB
:100070000600066C01060107800011241FBECFEFA9
:10008000D8E0DEBFCDBFE8E6F0E040E017C0B591B4
:10009000A59135912591059107FD0CC0959185910C
:1000A000EF01F92FE82F05900D92A217B307D9F7AA
:1000B000FE0104C01D92A217B307E1F7E937F40768
:0E00C00031F70E942A020C94F402F894FFCF4C
:1000CE0010C00E94100358F00E94090340F029F45A
:1000DE005F3F29F00C941E0351110C9418030C94DD
:1000EE002C030E94B60268F39923B1F3552391F3C2
:1000FE00951B550BBB27AA2762177307840738F089
:10010E009F5F5F4F220F331F441FAA1FA9F335D0E5
:10011E000E2E3AF0E0E832D091505040E695001C99
:10012E00CAF72BD0FE2F29D0660F771F881FBB1F53
:10013E00261737074807AB07B0E809F0BB0B802D31
:10014E00BF01FF2793585F4F3AF09E3F510578F05D
:10015E000C941E030C9418035F3FE4F3983ED4F303
:10016E00869577956795B795F7959F5FC9F7880F31
:10017E00911D9695879597F90895E1E0660F771F83
:10018E00881FBB1F621773078407BA0720F0621B14
:0E019E00730B840BBA0BEE1F88F7E0950895E3
:1001AC000FC00E94090338F00E94100320F0952321
:1001BC0011F00C941E030C942C0311240C941803B2
:1001CC000E94B60270F3959FC1F3950F50E0551F36
:1001DC00629FF001729FBB27F00DB11D639FAA2790
:1001EC00F00DB11DAA1F649F6627B00DA11D661FDF
:1001FC00829F2227B00DA11D621F739FB00DA11D00
:10020C00621F839FA00D611D221F749F3327A00DB9
:10021C00611D231F849F600D211D822F762F6A2F55
:10022C0011249F5750409AF0F1F088234AF0EE0FBA
:10023C00FF1FBB1F661F771F881F91505040A9F7E7
:10024C009E3F510580F00C941E030C9418035F3FE5
:10025C00E4F3983ED4F3869577956795B795F79523
:10026C00E7959F5FC1F7FE2B880F911D969587959B
:04027C0097F9089551
:100280001F920F920FB60F9211242F933F934F930B
:100290005F936F937F938F939F93AF93BF93CF930E
:1002A000EF93FF9386B1C1E0982F927081FFC0E079
:1002B00080910201C817B1F1992329F010928500AD
:1002C000109284002DC080918400909185009093BD
:1002D000010180930001609100017091010180E0B3
:1002E00090E00E94ED0120E030E040E05FE30E94FA
:1002F000280320E030E048E652E40E9424030E94F4
:100300005C026093050180910501893C30F4809185
:10031000000190910101892B19F48FEF8093050161
:10032000C0930201FF91EF91CF91BF91AF919F9147
:100330008F917F916F915F914F913F912F910F908E
:080340000FBE0F901F901895ED
:100348001F920F920FB60F9211248F93EF93FF9382
:100358008091B9008C7F803899F028F4803651F06C
:10036800803741F029C0883AF9F0883BE9F08039B4
:1003780019F506C0ECEBF0E080818068808321C02D
:100388008091BB008093040180910401863521F49B
:1003980081E08093030102C010920301ECEBF0E0CE
:1003A8008081806C80830DC0809105018093BB00A3
:1003B80085EC8093BC0005C0ECEBF0E0808180699F
:1003C8008083FF91EF918F910F900FBE0F901F9038
:0203D800189576
:1003DA00E89409C097FB3EF49095809570956195D5
:1003EA007F4F8F4F9F4F9923A9F0F92F96E9BB278B
:1003FA009395F695879577956795B795F111F8CF07
:10040A00FAF4BB0F11F460FF1BC06F5F7F4F8F4F71
:10041A009F4F16C0882311F096E911C0772321F067
:10042A009EE8872F762F05C0662371F096E8862FFF
:10043A0070E060E02AF09A95660F771F881FDAF756
:0A044A00880F9695879597F908959D
:1004540084B1806284B985B18F7D85B980E40E94BE
:10046400FF020E948B02789487B1886087B988B1B3
:10047400877F88B90E94E9022FEF81EE94E0215032
:1004840080409040E1F700C00000809104018F316A
:1004940020F488B1886088B903C088B1877F88B99F
:1004A40080910601823531F783B1806283B910925D
:0404B4000601E0CF8E
:1004B8000E94BE0288F09F5798F0B92F9927B7512C
:1004C800B0F0E1F0660F771F881F991F1AF0BA95F0
:1004D800C9F714C0B13091F00E941703B1E0089534
:1004E8000C941703672F782F8827B85F39F0B93F26
:1004F800CCF3869577956795B395D9F73EF49095A3
:0E0508008095709561957F4F8F4F9F4F08959E
:1005160087B1816087B988B18E7F88B988B18260DA
:1005260088B9E8E6F0E0808182608083ECE6F0E05E
:10053600808182608083E1E8F0E080818260808350
:100546001092850010928400A0E8B0E08C91826839
:100556008C9380818861808380E29EE490938700FB
:0605660080938600089559
:10056C0057FD9058440F551F59F05F3F71F0479558
:10057C00880F97FB991F61F09F3F79F0879508953D
:10058C00121613061406551FF2CF4695F1DF08C05C
:10059C00161617061806991FF1CF86957105610579
:0405AC000894089512
:1005B000092E0394000C11F4882352F0BB0F40F471
:1005C000BF2B11F460FF04C06F5F7F4F8F4F9F4FB1
:0205D00008958C
:1005D20088B1816088B985E38A95F1F7000088B116
:0605E2008E7F88B9089528
:1005E800EC010E9434030E943303CE010E943503BC
:0605F800CE010E94310358
:1005FE0097B19F7C97B9880F8093BA0085E480935A
:04060E00BC0008958F
:0E06120000240A941616170618060906089505
:0E06200000240A941216130614060506089507
:0E062E00E894BB2766277727CB0197F908953C
:0C063C0097F99F6780E870E060E0089587
:080648000E9467000C94D80227
:080650000E94D6000C94D802B0
:060658009FEF80EC089505
:04065E000C940000F8
:040662000E9465008D
:020666000895F5
:020668000895F3
:02066A000895F1
:01066C00FF8E
:00000001FF
