:100000000C9437000C94A6020C94A6020C94A60241
:100010000C94A6020C94A6020C94A6020C94A602C0
:100020000C94A6020C94A6020C94A6020C94A602B0
:100030000C94A6020C94A6020C94A6020C94A602A0
:100040000C94A6020C94A6020C94A6020C94A60290
:100050000C94A6020C94A6020C94A6020C94A60280
:100060000C94A6020C94A602010001048000112445
:100070001FBECFEFD8E0DEBFCDBFE8E6F0E040E046
:1000800017C0B591A59135912591059107FD0CC03B
:1000900095918591EF01F92FE82F05900D92A21708
:1000A000B307D9F7FE0104C01D92A217B307E1F709
:1000B000ED36F40731F70E9461000C948F02F8943A
:0200C000FFCF70
:1000C20041E060EA76E881E090E00E94CC000E9484
:1000D200C30161E070E087E090E00E947E028FE958
:1000E2009FE00197F1F700C0000083E50E946C02D7
:1000F20082E30E946C0285B1806285B90E949A02F5
:1001020080E6809301010E941A02809302018130ED
:1001120011F00E94A20282E50E941A020E94A2022B
:100122009FEF29E688E1915020408040E1F700C02E
:10013200000085B18F7D85B90E949A0281E6809385
:1001420001010E941A0280930201813011F00E9483
:10015200A20284E88093BC008091BC008823E4F76B
:100162008091BB00809303010E94A20262E070E0D2
:1001720087E090E00E947E028091030190E00E945D
:1001820028019FEF29E688E1915020408040E1F765
:0601920000C00000B0CF28
:100198000F931F93CF938B019C01C42F87B18F7C42
:1001A80087B9443079F018F4413031F023C0403138
:1001B80091F04034C9F01EC0E9EBF0E080818C7FFB
:1001C80080831EC0E9EBF0E080818D7F8083808191
:1001D8008160808315C0E9EBF0E080818E7F8083A9
:1001E8008081826080830CC0E9EBF0E080818360CD
:1001F800808306C0E9EBF0E080818C7F8083C1E0DA
:1002080060E074E284EF90E0A90198010E94F8018F
:10021800CA01B90160517109810991094C2F50E057
:100228009A01220F331F032E000C440B550B0E941A
:10023800F8012093B800ECEBF0E0808184608083C3
:08024800CF911F910F91089561
:10025000CF93DF932DEC829FC12D1124C695C695B7
:10026000C695CC0F9C2F990F990FC90F382F3C1BA7
:10027000C32F90E0831B9109EAE0F0E0BF010E94E8
:100280003202629FD12D1124D695D695D695DD0FD9
:100290008D2F880F880FD80F862F8D1BD82F77278B
:1002A000CB018D1B9109BF010E943202629F812DFB
:1002B0001124869586958695880F282F220F220F68
:1002C000820F681B862F9FEF21EE34E09150204073
:1002D0003040E1F700C00000805D0E946C0280E3C6
:1002E0008D0F0E946C0280E38C0F0E946C02DF91E4
:0402F000CF9108950D
:1002F40080FF04C09BB190629BB903C09BB19F7DFA
:100304009BB981FF04C09BB190649BB903C09BB1AE
:100314009F7B9BB982FF04C09BB190689BB903C0CB
:100324009BB19F779BB983FF04C095B1916095B948
:1003340003C095B19E7F95B984FF04C095B19260C6
:1003440095B903C095B19D7F95B985FF04C095B15A
:10035400946095B903C095B19B7F95B986FF04C09D
:1003640095B1986095B903C095B1977F95B98823E5
:1003740024F485B1806185B9089585B18F7E85B9EE
:020384000895DA
:100386008AB18C6F8AB98BB183708BB984B18F6354
:1003960084B915B880E00E947A012FEF89EF90E0CA
:1003A600215080409040E1F700C0000088E30E94A1
:1003B6005A0287EB91E00197F1F700C000008CE04C
:1003C6000E945A0287EB91E00197F1F700C0000006
:1003D60086E00E945A0287EB91E00197F1F700C090
:0A03E600000081E00E945A02089511
:1003F000A1E21A2EAA1BBB1BFD010DC0AA1FBB1F29
:10040000EE1FFF1FA217B307E407F50720F0A21B9A
:10041000B30BE40BF50B661F771F881F991F1A9407
:1004200069F760957095809590959B01AC01BD0131
:04043000CF0108955B
:100434008093BB0084E88093BC008091BC00882337
:10044400E4F78091B900887F883131F0883231F047
:10045400803429F481E0089581E0089581E00895CD
:1004640097FB072E16F4009407D077FD09D00E945D
:10047400460207FC05D03EF4909581959F4F089560
:08048400709561957F4F08950A
:10048C00AA1BBB1B51E107C0AA1FBB1FA617B707AE
:10049C0010F0A61BB70B881F991F5A95A9F78095CA
:0804AC009095BC01CD010895FB
:1004B4009BB19B7F9BB90E947A018BB180618BB900
:1004C4008FE79EE30197F1F700C000008BB18F7EA8
:0404D4008BB9089543
:1004D8009BB194609BB90E947A018BB180618BB902
:1004E8008FE39CE90197F1F700C000008BB18F7E84
:0404F8008BB908951F
:1004FC006130710519F480589F4F08C06230710546
:10050C0019F480549F4F02C080E090E00E945A0280
:02051C00089540
:10051E00EC010E94AB020E94AA02CE010E94AC0224
:06052E00CE010E94A802AC
:1005340084EA8093BC008091BC008823E4F708958A
:0805440084E98093BC000895D6
:04054C000C9400000B
:040550000E945F00A6
:02055400089508
:02055600089506
:02055800089504
:00000001FF
