:100000000C9437000C94C0000C94C0000C94C000F9
:100010000C94C0000C94C0000C94C0000C94C00060
:100020000C94C0000C94C0000C94C0000C94C00050
:100030000C94C0000C94C0000C94C0000C94C00040
:100040000C94C0000C94C0000C94C0000C94C00030
:100050000C94C0000C9480000C94C0000C94C00060
:100060000C94C0000C94C000010001018000112418
:100070001FBECFEFD8E0DEBFCDBFE8E6F0E040E046
:1000800017C0B591A59135912591059107FD0CC03B
:1000900095918591EF01F92FE82F05900D92A21708
:1000A000B307D9F7FE0104C01D92A217B307E1F709
:1000B000ED36F40731F70E949C000C94B500F894DB
:0200C000FFCF70
:1000C200ACE7B0E085E08C93EAE7F0E010828C9137
:1000D20080628C938C9180648C938C918F778C93BB
:1000E200808180688083808188608083808187604E
:0E00F2008083EEE7F0E08081806280830895D5
:100100001F920F920FB60F9211248F93EF93FF93CC
:100110008091790080930001EAE7F0E080818061BE
:100120008083808180648083FF91EF918F910F9015
:080130000FBE0F901F901895FF
:10013800F89478940E9461008AB18C638AB91BB8DC
:10014800EAE7F0E080818064808383EC99E001979E
:10015800F1F700C0000080910001880F880F8BB96B
:02016800F4CFD2
:10016A00EC010E94C5000E94C400CE010E94C60094
:06017A00CE010E94C2004C
:040180000C940000DB
:040184000E945F0076
:020188000895D8
:02018A000895D6
:02018C000895D4
:00000001FF
