:100000000C9437000C944F010C944F010C944F0149
:100010000C944F010C944F010C944F010C944F0120
:100020000C944F010C944F010C944F010C944F0110
:100030000C944F010C944F010C944F010C944F0100
:100040000C944F010C944F010C9434010C944F010B
:100050000C944F010C94DF000C944F010C944F0151
:100060000C944F010C944F010100010280001124F7
:100070001FBECFEFD8E0DEBFCDBFE8E6F0E040E046
:1000800017C0B591A59135912591059107FD0CC03B
:1000900095918591EF01F92FE82F05900D92A21708
:1000A000B307D9F7FE0104C01D92A217B307E1F709
:1000B000ED36F40731F70E94FB000C944401F894EC
:0200C000FFCF70
:1000C20080FF04C09BB190629BB903C09BB19F7D2E
:1000D2009BB981FF04C09BB190649BB903C09BB1E3
:1000E2009F7B9BB982FF04C09BB190689BB903C000
:1000F2009BB19F779BB983FF04C095B1916095B97D
:1001020003C095B19E7F95B984FF04C095B19260FA
:1001120095B903C095B19D7F95B985FF04C095B18E
:10012200946095B903C095B19B7F95B986FF04C0D1
:1001320095B1986095B903C095B1977F95B9882319
:1001420024F485B1806185B9089585B18F7E85B922
:0201520008950E
:100154008AB18C6F8AB98BB183708BB984B18F6388
:1001640084B915B880E00E9461002FEF89EF90E018
:10017400215080409040E1F700C0000088E30E94D5
:10018400100187EB91E00197F1F700C000008CE0CB
:100194000E94100187EB91E00197F1F700C0000085
:1001A40086E00E94100187EB91E00197F1F700C00F
:0A01B400000081E00E941001089590
:1001BE001F920F920FB60F9211248F93EF93FF930E
:1001CE008091790080930101EAE7F0E080818061FF
:1001DE008083808180648083FF91EF918F910F9057
:0801EE000FBE0F901F90189541
:1001F6000E94AA008FED9EE20197F1F700C0000071
:1002060088E40E9422018FE40E9422018CE40E946D
:0A021600220181E40E942201FFCFC3
:100220009BB19B7F9BB90E9461008BB180618BB9B0
:100230008FE79EE30197F1F700C000008BB18F7E3E
:040240008BB90895D9
:100244009BB194609BB90E9461008BB180618BB9B2
:100254008FE39CE90197F1F700C000008BB18F7E1A
:040264008BB90895B5
:100268001F920F920FB60F9211248F938091C600A0
:10027800809300018F910F900FBE0F901F901895DB
:10028800EC010E9454010E945301CE010E945501C5
:06029800CE010E9451019D
:04029E000C940000BC
:0402A2000E945F0057
:0202A6000895B9
:0202A8000895B7
:0202AA000895B5
:00000001FF
