:100000000C943D000C949E010C949E010C949E0156
:100010000C949E010C949E010C949E010C949E01E4
:100020000C949E010C949E010C949E010C949E01D4
:100030000C949E010C949E010C949E010C949E01C4
:100040000C949E010C949E010C9483010C949E01CF
:100050000C949E010C941C010C949E010C949E0126
:100060000C949E010C949E0101000101800101018C
:100070000700034A01070108800011241FBECFEFCB
:10008000D8E0DEBFCDBFE8E6F0E040E017C0B591B4
:10009000A59135912591059107FD0CC0959185910C
:1000A000EF01F92FE82F05900D92A217B307D9F7AA
:1000B000FE0104C01D92A217B307E1F7E937F40768
:0E00C00031F70E94B0000C949301F894FFCF2A
:1000CE0080FF04C09BB190629BB903C09BB19F7D22
:1000DE009BB981FF04C09BB190649BB903C09BB1D7
:1000EE009F7B9BB982FF04C09BB190689BB903C0F4
:1000FE009BB19F779BB983FF04C095B1916095B971
:10010E0003C095B19E7F95B984FF04C095B19260EE
:10011E0095B903C095B19D7F95B985FF04C095B182
:10012E00946095B903C095B19B7F95B986FF04C0C5
:10013E0095B1986095B903C095B1977F95B988230D
:10014E0024F485B1806185B9089585B18F7E85B916
:02015E00089502
:100160000E94E7008FE39FE10197F1F700C00000D4
:1001700061E070E080E090E00E9472018FE99FE012
:100180000197F1F700C0000088E40E9460018FE44D
:100190000E9460018CE40E94600181E40E94600181
:1001A0008FE39FE10197F1F700C0000062E070E08B
:1001B00081E090E00E9472018FE39FE10197F1F7E7
:0E01C00000C0000081E091E00E943801FFCFF6
:1001CE008AB18C6F8AB98BB183708BB984B18F630E
:1001DE0084B915B880E00E9467002FEF89EF90E098
:1001EE00215080409040E1F700C0000088E30E945B
:1001FE004E0187EB91E00197F1F700C000008CE013
:10020E000E944E0187EB91E00197F1F700C00000CC
:10021E0086E00E944E0187EB91E00197F1F700C056
:0A022E00000081E00E944E010895D7
:100238001F920F920FB60F9211248F93EF93FF9393
:100248008091790080930701EAE7F0E0808180617E
:100258008083808180648083FF91EF918F910F90DC
:080268000FBE0F901F901895C6
:100270000F931F93CF93DF938C01C0E0D0E003C0B6
:100280000E9460012196F801EC0FFD1F8081811111
:0C029000F7CFDF91CF911F910F910895DF
:10029C009BB19B7F9BB90E9467008BB180618BB92E
:1002AC008FE79EE30197F1F700C000008BB18F7EC2
:0402BC008BB908955D
:1002C0009BB194609BB90E9467008BB180618BB930
:1002D0008FE39CE90197F1F700C000008BB18F7E9E
:0402E0008BB9089539
:1002E4006130710519F480589F4F08C06230710560
:1002F40019F480549F4F02C080E090E00E944E01A8
:0203040008955A
:100306001F920F920FB60F9211248F938091C60001
:10031600809300018F910F900FBE0F901F9018953C
:10032600EC010E94A3010E94A201CE010E94A40139
:06033600CE010E94A001AF
:04033C000C9400001D
:040340000E946500B2
:0203440008951A
:02034600089518
:02034800089516
:06034A004D756E646F00AA
:00000001FF
