:100000000C9434000C94FB000C94FB000C94FB004B
:100010000C94FB000C94FB000C94FB000C94FB0074
:100020000C94FB000C94FB000C94FB000C94FB0064
:100030000C94FB000C94FB000C94FB000C94FB0054
:100040000C94FB000C94FB000C94FB000C94FB0044
:100050000C94FB000C94FB000C94FB000C94FB0034
:100060000C94FB000C94FB0011241FBECFEFD8E0D2
:10007000DEBFCDBF0E94F1000C94E600F894FFCFE4
:1000800080FF04C09BB190629BB903C09BB19F7D70
:100090009BB981FF04C09BB190649BB903C09BB125
:1000A0009F7B9BB982FF04C09BB190689BB903C042
:1000B0009BB19F779BB983FF04C095B1916095B9BF
:1000C00003C095B19E7F95B984FF04C095B192603D
:1000D00095B903C095B19D7F95B985FF04C095B1D1
:1000E000946095B903C095B19B7F95B986FF04C014
:1000F00095B1986095B903C095B1977F95B988235C
:1001000024F485B1806185B9089585B18F7E85B964
:02011000089550
:100112008AB18C6F8AB98BB183708BB984B18F63CA
:1001220084B915B880E00E9440002FEF89EF90E07B
:10013200215080409040E1F700C0000088E30E9417
:10014200C2008CE00E94C20086E00E94C20081E0F0
:060152000E94C2000895A6
:100158000F931F93CF93DF938C01C0E0D0E003C0CF
:100168000E94D4002196F801EC0FFD1F80818111B7
:0C017800F7CFDF91CF911F910F910895F8
:100184009BB19B7F9BB90E9440008BB180618BB96E
:100194008FE79EE30197F1F700C000008BB18F7EDB
:0401A4008BB9089576
:1001A8009BB194609BB90E9440008BB180618BB970
:1001B8008FE79EE30197F1F700C000008BB18F7EB7
:0401C8008BB9089552
:1001CC00EC010E9400010E94FF00CE010E9401017F
:0601DC00CE010E94FD00AF
:1001E2000E94890088E40E94D4008FE494E40E9473
:0401F200AC00FFCF8F
:0401F6000C94000065
:0401FA000E943E0021
:0201FE00089562
:0202000008955F
:0202020008955D
:00000001FF
